{"abi":[{"type":"constructor","inputs":[{"name":"defaultRollupChainId","type":"uint256","internalType":"uint256"},{"name":"admin","type":"address","internalType":"address"}],"stateMutability":"nonpayable"},{"type":"fallback","stateMutability":"payable"},{"type":"receive","stateMutability":"payable"},{"type":"function","name":"DEFAULT_ADMIN_ROLE","inputs":[],"outputs":[{"name":"","type":"bytes32","internalType":"bytes32"}],"stateMutability":"view"},{"type":"function","name":"SEQUENCER_ROLE","inputs":[],"outputs":[{"name":"","type":"bytes32","internalType":"bytes32"}],"stateMutability":"view"},{"type":"function","name":"acceptDefaultAdminTransfer","inputs":[],"outputs":[],"stateMutability":"nonpayable"},{"type":"function","name":"beginDefaultAdminTransfer","inputs":[{"name":"newAdmin","type":"address","internalType":"address"}],"outputs":[],"stateMutability":"nonpayable"},{"type":"function","name":"blockCommitment","inputs":[{"name":"header","type":"tuple","internalType":"struct Zenith.BlockHeader","components":[{"name":"rollupChainId","type":"uint256","internalType":"uint256"},{"name":"sequence","type":"uint256","internalType":"uint256"},{"name":"confirmBy","type":"uint256","internalType":"uint256"},{"name":"gasLimit","type":"uint256","internalType":"uint256"},{"name":"rewardAddress","type":"address","internalType":"address"}]},{"name":"blockDataHash","type":"bytes32","internalType":"bytes32"}],"outputs":[{"name":"commit","type":"bytes32","internalType":"bytes32"}],"stateMutability":"view"},{"type":"function","name":"cancelDefaultAdminTransfer","inputs":[],"outputs":[],"stateMutability":"nonpayable"},{"type":"function","name":"changeDefaultAdminDelay","inputs":[{"name":"newDelay","type":"uint48","internalType":"uint48"}],"outputs":[],"stateMutability":"nonpayable"},{"type":"function","name":"defaultAdmin","inputs":[],"outputs":[{"name":"","type":"address","internalType":"address"}],"stateMutability":"view"},{"type":"function","name":"defaultAdminDelay","inputs":[],"outputs":[{"name":"","type":"uint48","internalType":"uint48"}],"stateMutability":"view"},{"type":"function","name":"defaultAdminDelayIncreaseWait","inputs":[],"outputs":[{"name":"","type":"uint48","internalType":"uint48"}],"stateMutability":"view"},{"type":"function","name":"enter","inputs":[{"name":"rollupChainId","type":"uint256","internalType":"uint256"},{"name":"rollupRecipient","type":"address","internalType":"address"},{"name":"token","type":"address","internalType":"address"},{"name":"amount","type":"uint256","internalType":"uint256"}],"outputs":[],"stateMutability":"payable"},{"type":"function","name":"enter","inputs":[{"name":"rollupChainId","type":"uint256","internalType":"uint256"},{"name":"rollupRecipient","type":"address","internalType":"address"}],"outputs":[],"stateMutability":"payable"},{"type":"function","name":"fulfillExits","inputs":[{"name":"orders","type":"tuple[]","internalType":"struct Passage.ExitOrder[]","components":[{"name":"rollupChainId","type":"uint256","internalType":"uint256"},{"name":"token","type":"address","internalType":"address"},{"name":"recipient","type":"address","internalType":"address"},{"name":"amount","type":"uint256","internalType":"uint256"}]}],"outputs":[],"stateMutability":"payable"},{"type":"function","name":"getRoleAdmin","inputs":[{"name":"role","type":"bytes32","internalType":"bytes32"}],"outputs":[{"name":"","type":"bytes32","internalType":"bytes32"}],"stateMutability":"view"},{"type":"function","name":"grantRole","inputs":[{"name":"role","type":"bytes32","internalType":"bytes32"},{"name":"account","type":"address","internalType":"address"}],"outputs":[],"stateMutability":"nonpayable"},{"type":"function","name":"hasRole","inputs":[{"name":"role","type":"bytes32","internalType":"bytes32"},{"name":"account","type":"address","internalType":"address"}],"outputs":[{"name":"","type":"bool","internalType":"bool"}],"stateMutability":"view"},{"type":"function","name":"lastSubmittedAtBlock","inputs":[{"name":"","type":"uint256","internalType":"uint256"}],"outputs":[{"name":"","type":"uint256","internalType":"uint256"}],"stateMutability":"view"},{"type":"function","name":"nextSequence","inputs":[{"name":"","type":"uint256","internalType":"uint256"}],"outputs":[{"name":"","type":"uint256","internalType":"uint256"}],"stateMutability":"view"},{"type":"function","name":"owner","inputs":[],"outputs":[{"name":"","type":"address","internalType":"address"}],"stateMutability":"view"},{"type":"function","name":"pendingDefaultAdmin","inputs":[],"outputs":[{"name":"newAdmin","type":"address","internalType":"address"},{"name":"schedule","type":"uint48","internalType":"uint48"}],"stateMutability":"view"},{"type":"function","name":"pendingDefaultAdminDelay","inputs":[],"outputs":[{"name":"newDelay","type":"uint48","internalType":"uint48"},{"name":"schedule","type":"uint48","internalType":"uint48"}],"stateMutability":"view"},{"type":"function","name":"renounceRole","inputs":[{"name":"role","type":"bytes32","internalType":"bytes32"},{"name":"account","type":"address","internalType":"address"}],"outputs":[],"stateMutability":"nonpayable"},{"type":"function","name":"revokeRole","inputs":[{"name":"role","type":"bytes32","internalType":"bytes32"},{"name":"account","type":"address","internalType":"address"}],"outputs":[],"stateMutability":"nonpayable"},{"type":"function","name":"rollbackDefaultAdminDelay","inputs":[],"outputs":[],"stateMutability":"nonpayable"},{"type":"function","name":"submitBlock","inputs":[{"name":"header","type":"tuple","internalType":"struct Zenith.BlockHeader","components":[{"name":"rollupChainId","type":"uint256","internalType":"uint256"},{"name":"sequence","type":"uint256","internalType":"uint256"},{"name":"confirmBy","type":"uint256","internalType":"uint256"},{"name":"gasLimit","type":"uint256","internalType":"uint256"},{"name":"rewardAddress","type":"address","internalType":"address"}]},{"name":"blockDataHash","type":"bytes32","internalType":"bytes32"},{"name":"v","type":"uint8","internalType":"uint8"},{"name":"r","type":"bytes32","internalType":"bytes32"},{"name":"s","type":"bytes32","internalType":"bytes32"},{"name":"blockData","type":"bytes","internalType":"bytes"}],"outputs":[],"stateMutability":"nonpayable"},{"type":"function","name":"supportsInterface","inputs":[{"name":"interfaceId","type":"bytes4","internalType":"bytes4"}],"outputs":[{"name":"","type":"bool","internalType":"bool"}],"stateMutability":"view"},{"type":"event","name":"BlockData","inputs":[{"name":"blockData","type":"bytes","indexed":false,"internalType":"bytes"}],"anonymous":false},{"type":"event","name":"BlockSubmitted","inputs":[{"name":"sequencer","type":"address","indexed":true,"internalType":"address"},{"name":"header","type":"tuple","indexed":true,"internalType":"struct Zenith.BlockHeader","components":[{"name":"rollupChainId","type":"uint256","internalType":"uint256"},{"name":"sequence","type":"uint256","internalType":"uint256"},{"name":"confirmBy","type":"uint256","internalType":"uint256"},{"name":"gasLimit","type":"uint256","internalType":"uint256"},{"name":"rewardAddress","type":"address","internalType":"address"}]},{"name":"blockDataHash","type":"bytes32","indexed":false,"internalType":"bytes32"}],"anonymous":false},{"type":"event","name":"DefaultAdminDelayChangeCanceled","inputs":[],"anonymous":false},{"type":"event","name":"DefaultAdminDelayChangeScheduled","inputs":[{"name":"newDelay","type":"uint48","indexed":false,"internalType":"uint48"},{"name":"effectSchedule","type":"uint48","indexed":false,"internalType":"uint48"}],"anonymous":false},{"type":"event","name":"DefaultAdminTransferCanceled","inputs":[],"anonymous":false},{"type":"event","name":"DefaultAdminTransferScheduled","inputs":[{"name":"newAdmin","type":"address","indexed":true,"internalType":"address"},{"name":"acceptSchedule","type":"uint48","indexed":false,"internalType":"uint48"}],"anonymous":false},{"type":"event","name":"Enter","inputs":[{"name":"rollupChainId","type":"uint256","indexed":false,"internalType":"uint256"},{"name":"token","type":"address","indexed":true,"internalType":"address"},{"name":"rollupRecipient","type":"address","indexed":true,"internalType":"address"},{"name":"amount","type":"uint256","indexed":false,"internalType":"uint256"}],"anonymous":false},{"type":"event","name":"ExitFilled","inputs":[{"name":"rollupChainId","type":"uint256","indexed":false,"internalType":"uint256"},{"name":"token","type":"address","indexed":true,"internalType":"address"},{"name":"hostRecipient","type":"address","indexed":true,"internalType":"address"},{"name":"amount","type":"uint256","indexed":false,"internalType":"uint256"}],"anonymous":false},{"type":"event","name":"RoleAdminChanged","inputs":[{"name":"role","type":"bytes32","indexed":true,"internalType":"bytes32"},{"name":"previousAdminRole","type":"bytes32","indexed":true,"internalType":"bytes32"},{"name":"newAdminRole","type":"bytes32","indexed":true,"internalType":"bytes32"}],"anonymous":false},{"type":"event","name":"RoleGranted","inputs":[{"name":"role","type":"bytes32","indexed":true,"internalType":"bytes32"},{"name":"account","type":"address","indexed":true,"internalType":"address"},{"name":"sender","type":"address","indexed":true,"internalType":"address"}],"anonymous":false},{"type":"event","name":"RoleRevoked","inputs":[{"name":"role","type":"bytes32","indexed":true,"internalType":"bytes32"},{"name":"account","type":"address","indexed":true,"internalType":"address"},{"name":"sender","type":"address","indexed":true,"internalType":"address"}],"anonymous":false},{"type":"error","name":"AccessControlBadConfirmation","inputs":[]},{"type":"error","name":"AccessControlEnforcedDefaultAdminDelay","inputs":[{"name":"schedule","type":"uint48","internalType":"uint48"}]},{"type":"error","name":"AccessControlEnforcedDefaultAdminRules","inputs":[]},{"type":"error","name":"AccessControlInvalidDefaultAdmin","inputs":[{"name":"defaultAdmin","type":"address","internalType":"address"}]},{"type":"error","name":"AccessControlUnauthorizedAccount","inputs":[{"name":"account","type":"address","internalType":"address"},{"name":"neededRole","type":"bytes32","internalType":"bytes32"}]},{"type":"error","name":"BadSequence","inputs":[{"name":"expected","type":"uint256","internalType":"uint256"}]},{"type":"error","name":"BadSignature","inputs":[{"name":"derivedSequencer","type":"address","internalType":"address"}]},{"type":"error","name":"BlockExpired","inputs":[]},{"type":"error","name":"OneRollupBlockPerHostBlock","inputs":[]},{"type":"error","name":"OrderExpired","inputs":[]},{"type":"error","name":"SafeCastOverflowedUintDowncast","inputs":[{"name":"bits","type":"uint8","internalType":"uint8"},{"name":"value","type":"uint256","internalType":"uint256"}]}],"bytecode":{"object":"0x60a060405234801561000f575f80fd5b50604051611a98380380611a9883398101604081905261002e916101ae565b608082905262015180816001600160a01b03811661006557604051636116401160e11b81525f600482015260240160405180910390fd5b600180546001600160d01b0316600160d01b65ffffffffffff85160217905561008e5f82610098565b50505050506101e8565b5f826100f4575f6100b16002546001600160a01b031690565b6001600160a01b0316146100d857604051631fe1e13d60e11b815260040160405180910390fd5b600280546001600160a01b0319166001600160a01b0384161790555b6100fe8383610107565b90505b92915050565b5f828152602081815260408083206001600160a01b038516845290915281205460ff166101a7575f838152602081815260408083206001600160a01b03861684529091529020805460ff1916600117905561015f3390565b6001600160a01b0316826001600160a01b0316847f2f8788117e7eff1d82e926ec794901d17c78024a50270940304540a733656f0d60405160405180910390a4506001610101565b505f610101565b5f80604083850312156101bf575f80fd5b825160208401519092506001600160a01b03811681146101dd575f80fd5b809150509250929050565b6080516118916102075f395f818161018e01526101ba01526118915ff3fe608060405260043610610184575f3560e01c80637e82bb01116100d0578063c7bc4a6211610089578063cf6eefb711610063578063cf6eefb7146104b7578063d547741f146104f1578063d602b9fd14610510578063ea3b9ba114610524576101b5565b8063c7bc4a6214610470578063cc8463c81461048f578063cefc1429146104a3576101b5565b80637e82bb011461039b57806384ef8ffc146103c65780638da5cb5b146103f757806391d148541461040b578063a1eda53c1461042a578063a217fddf1461045d576101b5565b806336568abe1161013d5780634842855c116101175780634842855c1461031a578063634e93da1461033e578063649a5ec71461035d5780637e5692741461037c576101b5565b806336568abe146102d557806336702119146102f45780633805c6bd14610307576101b5565b806301ffc9a7146101df578063022d63fb146102135780630aa6220b1461023b5780631e6637201461024f578063248a9ca3146102885780632f2ff15d146102b6576101b5565b366101b5576101b37f000000000000000000000000000000000000000000000000000000000000000033610532565b005b6101b37f000000000000000000000000000000000000000000000000000000000000000033610532565b3480156101ea575f80fd5b506101fe6101f93660046114a8565b61057b565b60405190151581526020015b60405180910390f35b34801561021e575f80fd5b50620697805b60405165ffffffffffff909116815260200161020a565b348015610246575f80fd5b506101b36105a5565b34801561025a575f80fd5b5061027a6102693660046114cf565b60036020525f908152604090205481565b60405190815260200161020a565b348015610293575f80fd5b5061027a6102a23660046114cf565b5f9081526020819052604090206001015490565b3480156102c1575f80fd5b506101b36102d0366004611501565b6105ba565b3480156102e0575f80fd5b506101b36102ef366004611501565b6105e6565b6101b361030236600461152b565b610691565b6101b361031536600461159a565b610960565b348015610325575f80fd5b5061027a6d53455155454e4345525f524f4c4560901b81565b348015610349575f80fd5b506101b36103583660046115db565b610a31565b348015610368575f80fd5b506101b36103773660046115f4565b610a44565b348015610387575f80fd5b506101b361039636600461169a565b610a57565b3480156103a6575f80fd5b5061027a6103b53660046114cf565b60046020525f908152604090205481565b3480156103d1575f80fd5b506002546001600160a01b03165b6040516001600160a01b03909116815260200161020a565b348015610402575f80fd5b506103df610aa6565b348015610416575f80fd5b506101fe610425366004611501565b610abe565b348015610435575f80fd5b5061043e610ae6565b6040805165ffffffffffff93841681529290911660208301520161020a565b348015610468575f80fd5b5061027a5f81565b34801561047b575f80fd5b5061027a61048a36600461174d565b610b38565b34801561049a575f80fd5b50610224610bcd565b3480156104ae575f80fd5b506101b3610c2b565b3480156104c2575f80fd5b506104cb610c6a565b604080516001600160a01b03909316835265ffffffffffff90911660208301520161020a565b3480156104fc575f80fd5b506101b361050b366004611501565b610c8b565b34801561051b575f80fd5b506101b3610cb3565b6101b3610532366004611501565b604080518381523460208201526001600160a01b038316915f917fe8a7ca8155e14d9cc8faeecec58a97268da95a2327cc892593748ce37cc6953f910160405180910390a35050565b5f6001600160e01b031982166318a4c3c360e11b148061059f575061059f82610cc5565b92915050565b5f6105af81610cf9565b6105b7610d03565b50565b816105d857604051631fe1e13d60e11b815260040160405180910390fd5b6105e28282610d0f565b5050565b8115801561060157506002546001600160a01b038281169116145b15610687575f80610610610c6a565b90925090506001600160a01b038216151580610632575065ffffffffffff8116155b8061064557504265ffffffffffff821610155b15610672576040516319ca5ebb60e01b815265ffffffffffff821660048201526024015b60405180910390fd5b50506001805465ffffffffffff60a01b191690555b6105e28282610d33565b345f5b8281101561095a575f8484838181106106af576106af611776565b90506080020160200160208101906106c791906115db565b6001600160a01b03160361077e578383828181106106e7576106e7611776565b90506080020160400160208101906106ff91906115db565b6001600160a01b03166108fc85858481811061071d5761071d611776565b9050608002016060013590811502906040515f60405180830381858888f1935050505015801561074f573d5f803e3d5ffd5b5083838281811061076257610762611776565b9050608002016060013582610777919061179e565b9150610875565b83838281811061079057610790611776565b90506080020160200160208101906107a891906115db565b6001600160a01b03166323b872dd338686858181106107c9576107c9611776565b90506080020160400160208101906107e191906115db565b8787868181106107f3576107f3611776565b6040516001600160e01b031960e088901b1681526001600160a01b039586166004820152949093166024850152506060608090920201013560448201526064016020604051808303815f875af115801561084f573d5f803e3d5ffd5b505050506040513d601f19601f8201168201806040525081019061087391906117b1565b505b83838281811061088757610887611776565b905060800201604001602081019061089f91906115db565b6001600160a01b03168484838181106108ba576108ba611776565b90506080020160200160208101906108d291906115db565b6001600160a01b03167fe93d7a771f81dc20f1d474f6868677269fdfa09830508e48edb0aa4d6569983386868581811061090e5761090e611776565b9050608002015f013587878681811061092957610929611776565b9050608002016060013560405161094a929190918252602082015260400190565b60405180910390a3600101610694565b50505050565b6040516323b872dd60e01b8152336004820152306024820152604481018290526001600160a01b038316906323b872dd906064016020604051808303815f875af11580156109b0573d5f803e3d5ffd5b505050506040513d601f19601f820116820180604052508101906109d491906117b1565b50826001600160a01b0316826001600160a01b03167fe8a7ca8155e14d9cc8faeecec58a97268da95a2327cc892593748ce37cc6953f8684604051610a23929190918252602082015260400190565b60405180910390a350505050565b5f610a3b81610cf9565b6105e282610d6b565b5f610a4e81610cf9565b6105e282610ddd565b610a648787878787610e4c565b7fc030727dea5440ebb1789967645e2595e4e67cf55821175a3f9f8b33aff41fa58282604051610a959291906117d0565b60405180910390a150505050505050565b5f610ab96002546001600160a01b031690565b905090565b5f918252602082815260408084206001600160a01b0393909316845291905290205460ff1690565b6002545f90600160d01b900465ffffffffffff168015158015610b1157504265ffffffffffff821610155b610b1c575f80610b30565b600254600160a01b900465ffffffffffff16815b915091509091565b81516020808401516060808601516040808801516080909801518151710696e6974342e73657175656e6365722e76360741b8188015246603282015260528101979097526072870194909452609286019190915260b28501969096521b6bffffffffffffffffffffffff191660d283015260e68083019390935283518083039093018352610106909101909252805191012090565b6002545f90600160d01b900465ffffffffffff168015158015610bf757504265ffffffffffff8216105b610c1257600154600160d01b900465ffffffffffff16610c25565b600254600160a01b900465ffffffffffff165b91505090565b5f610c34610c6a565b509050336001600160a01b03821614610c6257604051636116401160e11b8152336004820152602401610669565b6105b7611047565b6001546001600160a01b03811691600160a01b90910465ffffffffffff1690565b81610ca957604051631fe1e13d60e11b815260040160405180910390fd5b6105e282826110dd565b5f610cbd81610cf9565b6105b7611101565b5f6001600160e01b03198216637965db0b60e01b148061059f57506301ffc9a760e01b6001600160e01b031983161461059f565b6105b7813361110b565b610d0d5f80611144565b565b5f82815260208190526040902060010154610d2981610cf9565b61095a8383611203565b6001600160a01b0381163314610d5c5760405163334bd91960e11b815260040160405180910390fd5b610d668282611270565b505050565b5f610d74610bcd565b610d7d426112ac565b610d8791906117fe565b9050610d9382826112e2565b60405165ffffffffffff821681526001600160a01b038316907f3377dc44241e779dd06afab5b788a35ca5f3b778836e2990bdb26a2a4b2e5ed69060200160405180910390a25050565b5f610de78261135f565b610df0426112ac565b610dfa91906117fe565b9050610e068282611144565b6040805165ffffffffffff8085168252831660208201527ff1038c18cf84a56e432fdbfaf746924b7ea511dfe03a6506a0ceba4888788d9b910160405180910390a15050565b84515f90815260036020526040812080549082610e6883611824565b91905055905085602001518114610e9557604051635f64988d60e11b815260048101829052602401610669565b8560400151421115610eba576040516378fd448d60e01b815260040160405180910390fd5b5f610ec58787610b38565b604080515f8082526020820180845284905260ff89169282019290925260608101879052608081018690529192509060019060a0016020604051602081039080840390855afa158015610f1a573d5f803e3d5ffd5b505050602060405103519050610f416d53455155454e4345525f524f4c4560901b82610abe565b610f6957604051639a7d38d960e01b81526001600160a01b0382166004820152602401610669565b87515f90815260046020526040902054439003610f9957604051632ce0494b60e01b815260040160405180910390fd5b87515f908152600460205260409081902043905551610ff2908990815181526020808301519082015260408083015190820152606080830151908201526080918201516001600160a01b03169181019190915260a00190565b6040518091039020816001600160a01b03167f9c5702b5639f451bda4f9dba7fdf9d125a675ccddd315b81ce962d3ddd986a238960405161103591815260200190565b60405180910390a35050505050505050565b5f80611051610c6a565b915091506110668165ffffffffffff16151590565b158061107a57504265ffffffffffff821610155b156110a2576040516319ca5ebb60e01b815265ffffffffffff82166004820152602401610669565b6110bd5f6110b86002546001600160a01b031690565b611270565b506110c85f83611203565b5050600180546001600160d01b031916905550565b5f828152602081905260409020600101546110f781610cf9565b61095a8383611270565b610d0d5f806112e2565b6111158282610abe565b6105e25760405163e2517d3f60e01b81526001600160a01b038216600482015260248101839052604401610669565b600254600160d01b900465ffffffffffff1680156111c6574265ffffffffffff8216101561119d57600254600180546001600160d01b0316600160a01b90920465ffffffffffff16600160d01b029190911790556111c6565b6040517f2b1fa2edafe6f7b9e97c1a9e0c3660e645beb2dcaa2d45bdbf9beaf5472e1ec5905f90a15b50600280546001600160a01b0316600160a01b65ffffffffffff948516026001600160d01b031617600160d01b9290931691909102919091179055565b5f8261125f575f61121c6002546001600160a01b031690565b6001600160a01b03161461124357604051631fe1e13d60e11b815260040160405180910390fd5b600280546001600160a01b0319166001600160a01b0384161790555b61126983836113b0565b9392505050565b5f8215801561128c57506002546001600160a01b038381169116145b156112a257600280546001600160a01b03191690555b611269838361143f565b5f65ffffffffffff8211156112de576040516306dfcc6560e41b81526030600482015260248101839052604401610669565b5090565b5f6112eb610c6a565b6001805465ffffffffffff8616600160a01b026001600160d01b03199091166001600160a01b03881617179055915061132d90508165ffffffffffff16151590565b15610d66576040517f8886ebfc4259abdbc16601dd8fb5678e54878f47b3c34836cfc51154a9605109905f90a1505050565b5f80611369610bcd565b90508065ffffffffffff168365ffffffffffff16116113915761138c838261183c565b611269565b61126965ffffffffffff8416620697805f828218828410028218611269565b5f6113bb8383610abe565b611438575f838152602081815260408083206001600160a01b03861684529091529020805460ff191660011790556113f03390565b6001600160a01b0316826001600160a01b0316847f2f8788117e7eff1d82e926ec794901d17c78024a50270940304540a733656f0d60405160405180910390a450600161059f565b505f61059f565b5f61144a8383610abe565b15611438575f838152602081815260408083206001600160a01b0386168085529252808320805460ff1916905551339286917ff6391f5c32d9c69d2a47ea670b442974b53935d1edc7fd64eb21e047a839171b9190a450600161059f565b5f602082840312156114b8575f80fd5b81356001600160e01b031981168114611269575f80fd5b5f602082840312156114df575f80fd5b5035919050565b80356001600160a01b03811681146114fc575f80fd5b919050565b5f8060408385031215611512575f80fd5b82359150611522602084016114e6565b90509250929050565b5f806020838503121561153c575f80fd5b823567ffffffffffffffff80821115611553575f80fd5b818501915085601f830112611566575f80fd5b813581811115611574575f80fd5b8660208260071b8501011115611588575f80fd5b60209290920196919550909350505050565b5f805f80608085870312156115ad575f80fd5b843593506115bd602086016114e6565b92506115cb604086016114e6565b9396929550929360600135925050565b5f602082840312156115eb575f80fd5b611269826114e6565b5f60208284031215611604575f80fd5b813565ffffffffffff81168114611269575f80fd5b5f60a08284031215611629575f80fd5b60405160a0810181811067ffffffffffffffff8211171561165857634e487b7160e01b5f52604160045260245ffd5b80604052508091508235815260208301356020820152604083013560408201526060830135606082015261168e608084016114e6565b60808201525092915050565b5f805f805f805f610140888a0312156116b1575f80fd5b6116bb8989611619565b965060a0880135955060c088013560ff811681146116d7575f80fd5b945060e08801359350610100880135925061012088013567ffffffffffffffff80821115611703575f80fd5b818a0191508a601f830112611716575f80fd5b813581811115611724575f80fd5b8b6020828501011115611735575f80fd5b60208301945080935050505092959891949750929550565b5f8060c0838503121561175e575f80fd5b6117688484611619565b9460a0939093013593505050565b634e487b7160e01b5f52603260045260245ffd5b634e487b7160e01b5f52601160045260245ffd5b8181038181111561059f5761059f61178a565b5f602082840312156117c1575f80fd5b81518015158114611269575f80fd5b60208152816020820152818360408301375f818301604090810191909152601f909201601f19160101919050565b65ffffffffffff81811683821601908082111561181d5761181d61178a565b5092915050565b5f600182016118355761183561178a565b5060010190565b65ffffffffffff82811682821603908082111561181d5761181d61178a56fea2646970667358221220111de8e40c8e2761ed9ab04f385dfef1dffcd646c5a270f4fc3dc0858a0d605764736f6c63430008190033","linkReferences":{}},"methodIdentifiers":{"DEFAULT_ADMIN_ROLE()":"a217fddf","SEQUENCER_ROLE()":"4842855c","acceptDefaultAdminTransfer()":"cefc1429","beginDefaultAdminTransfer(address)":"634e93da","blockCommitment((uint256,uint256,uint256,uint256,address),bytes32)":"c7bc4a62","cancelDefaultAdminTransfer()":"d602b9fd","changeDefaultAdminDelay(uint48)":"649a5ec7","defaultAdmin()":"84ef8ffc","defaultAdminDelay()":"cc8463c8","defaultAdminDelayIncreaseWait()":"022d63fb","enter(uint256,address)":"ea3b9ba1","enter(uint256,address,address,uint256)":"3805c6bd","fulfillExits((uint256,address,address,uint256)[])":"36702119","getRoleAdmin(bytes32)":"248a9ca3","grantRole(bytes32,address)":"2f2ff15d","hasRole(bytes32,address)":"91d14854","lastSubmittedAtBlock(uint256)":"7e82bb01","nextSequence(uint256)":"1e663720","owner()":"8da5cb5b","pendingDefaultAdmin()":"cf6eefb7","pendingDefaultAdminDelay()":"a1eda53c","renounceRole(bytes32,address)":"36568abe","revokeRole(bytes32,address)":"d547741f","rollbackDefaultAdminDelay()":"0aa6220b","submitBlock((uint256,uint256,uint256,uint256,address),bytes32,uint8,bytes32,bytes32,bytes)":"7e569274","supportsInterface(bytes4)":"01ffc9a7"},"id":35}